:020000040800F2
:10000000E007002091010008B3230008151D000837
:10001000B12300083705000821290008000000006E
:100020000000000000000000000000001125000892
:100030003905000800000000B52300083F2500082E
:10004000AB010008AB010008AB010008AB010008E0
:10005000AB010008AB01000869050008AB0100080E
:10006000AB010008AB010008AB010008AB010008C0
:10007000AB010008AB010008AB010008AB010008B0
:10008000AB010008AB010008AB010008AB010008A0
:10009000AB010008AB010008AB010008AB01000890
:1000A000AB010008AB010008AB010008AB01000880
:1000B000AB010008AB010008AB010008AB01000870
:1000C000AB010008AB010008AB010008AB01000860
:1000D000AB01000815290008AB010008AB010008BE
:1000E000AB010008AB010008AB01000800F002F80A
:1000F00000F03FF80AA090E8000C82448344AAF183
:100100000107DA4501D100F034F8AFF2090EBAE880
:100110000F0013F0010F18BFFB1A43F0010318473B
:10012000882F0000A82F0000103A24BF78C878C19B
:10013000FAD8520724BF30C830C144BF04680C60ED
:10014000704700000023002400250026103A28BF35
:1001500078C1FBD8520728BF30C148BF0B60704739
:10016000782900F07D80002070471FB51FBD10B5B5
:1001700010BD00F0A6F91146FFF7F7FF02F014FCDE
:1001800000F0C4F903B4FFF7F2FF03BC00F0CCF9B0
:100190000948804709480047FEE7FEE7FEE7FEE71B
:1001A000FEE7FEE7FEE7FEE7FEE7FEE70448054957
:1001B000054A064B70470000A1250008ED00000825
:1001C000E0010020E0070020E0030020E003002021
:1001D0000FB41CB5074B06AA7B44694600900598EE
:1001E00000F057F90020694600F066F91CBC5DF884
:1001F00014FB0000DD0200002DE9F0410E4604462C
:10020000002020622046E168884730B3252805D0C9
:10021000D4E901219047206A401CF2E7E1682046BA
:1002200000278847050018D0A5F14100192802D8F9
:1002300020354FF400673246294620462760FFF7F5
:100240008FFF40B1012804D0F61D26F007060836BE
:10025000D8E7361DD6E72846DAE7206ABDE8F08100
:1002600070B504460D4621461068AFF30080218822
:10027000090502D50F4A7A4402E00E4A7A440E324A
:10028000002104F1240305E000F00F060009965D4B
:100290005E54491C0028F7D120780023000704D5BC
:1002A000702D02D009B1022311322046BDE8704002
:1002B00000F091B8042E000040EA0103024630B578
:1002C0009B0710D14FF0013400E008C208C91D1B84
:1002D0009D4315EAC41FF8D013F0FF0102F8011B7B
:1002E0000DD01B0AF8E711F8013B002B02F8013B87
:1002F00005D011F8013B002B02F8013BF3D130BDD2
:100300004FF0000200B5134694469646203922BFAE
:10031000A0E80C50A0E80C50B1F12001BFF4F7AFF9
:10032000090728BFA0E80C5048BF0CC05DF804EBDB
:10033000890028BF40F8042B08BF704748BF20F849
:10034000022B11F0804F18BF00F8012B70470000FE
:100350004FF0013C50F8042B51F8043B9A4221D154
:10036000A2EB0C03934313EACC1317D150F8042BE0
:1003700051F8043B9A4215D1A2EB0C03934313EAC4
:10038000CC130BD150F8042B51F8043B9A4209D1FD
:10039000A2EB0C03934313EACC13DBD04FF0000025
:1003A000704700BFD01A01BAB1FA81F101F018010B
:1003B00022FA01F0CB40C1F12001DBB2C0B2C01A79
:1003C0002CFA01F3D11A914311EAC311E6D1704717
:1003D0007047704770472DE9F0470D4699469246A1
:1003E000044600F124080168880604D5E06921F07C
:1003F0001001216000E00120A84201DD471B00E060
:100400000027A1697A1902EB0900081AA061207877
:10041000C00602D42046AFF30080002608E0D4E9ED
:1004200001211AF806009047206A401C761C2062C1
:100430004E45F4DB2078C0060AD52046AFF3008095
:1004400006E0D4E9012130209047206A401C206258
:10045000381EA7F10107F4DC07E0D4E9012118F800
:1004600005009047206A401C2062281EA5F1010566
:10047000F3DC2046AFF300802078000602D502208E
:10048000BDE8F0870120FBE701694A1C026108789A
:10049000704700B58FB0CDE90131002105910549C4
:1004A0007944CDE9031011466846FFF7A5FE0FB069
:1004B00000BD0000E5FFFFFF0A6802F8010B0A60BB
:1004C0007047754600F02CF8AE4605006946534665
:1004D00020F00700854618B020B5FFF767FEBDE89D
:1004E00020404FF000064FF000074FF000084FF09B
:1004F000000B21F00701AC46ACE8C009ACE8C0092C
:10050000ACE8C009ACE8C0098D46704710B5044698
:10051000AFF300802046BDE81040FFF733BE000077
:10052000004870477C01002001491820ABBEFEE75F
:10053000260002007047FEE770470000074908B533
:100540000968074AB1FBF2F1064A41435068536813
:100550001B1A00938B42FAD308BD00003000002024
:1005600040420F00001000E0012000F0AFB8000092
:100570001CB50749012301AA097908438DF8040035
:100580000A2000904E21034800F074FA1CBD0000C0
:10059000000000204000002010B590F8211000223B
:1005A000022905D00421816380F82020012010BD9C
:1005B00001680B6823F00E030B6001680B6823F0E1
:1005C00001030B6090F84030C46B012101FA03F382
:1005D000636080F8211080F82020104610BD0000D4
:1005E00010B590F821100024022903D00421816362
:1005F00001243DE001680A6822F00E020A600168E9
:100600000A6822F001020A601A4A0168914201D187
:10061000012121E0174A1432914201D110211BE03F
:10062000144A2832914201D1891515E0114A3C3211
:10063000914201D189140FE00E4A5032914202D109
:100640004FF4803108E00B4A6432914202D14FF4FA
:10065000801101E04FF08071064A083A5160012193
:1006600080F82110002180F82010416B01B18847EB
:10067000204610BD0800024070B5044600F030F975
:100680000546601C02D004480078044400F028F9B4
:10069000401BA042FAD370BD24000020012810D1D5
:1006A0000848017800290CD1FF210170417831B14F
:1006B000002242704FF40071034800F00BB9012290
:1006C000F7E7704716000020000C0140044910B500
:1006D0000A68024202D00860FFF7E0FF10BD000088
:1006E000140401402DE9F84FDFF8B8910024A9F176
:1006F000040B23460F2709F1040AABF1040EC9E0ED
:100700000125A5402A40AA427DD1674ED1F804C0F8
:10071000ACEB0608B44532D014DCBCF1030F3AD080
:1007200009DCBCF1000F2AD0BCF1010F1CD0BCF1D8
:10073000020F31D11DE0BCF1110F17D0BCF1120F27
:100740002AD119E0B8F5881F19D006DCB8F5803F2A
:1007500015D0B8F5801F1FD111E0B8F5001F0ED0DD
:10076000B8F5041F18D10AE0CB6815E0CB681B1D53
:1007700012E0CB6808330FE0CB680C330CE08B68D9
:100780002BB1012B4FF0080303D0456104E0042393
:1007900002E0056100E00023FF2A01D8064601E0DF
:1007A00000F104064FEA840501D9A5F12005D6F829
:1007B000008007FA05FC28EA0C0803FA05F548EA68
:1007C0000508C6F800804D68ED0062D5374DAE696A
:1007D00046F00106AE61AD6924F0030605F001059F
:1007E0000095334D06EB050CDCF80850A607360FD4
:1007F00007FA06F825EA0805DFF8B880404503D176
:100800004FF0000817E044E0DFF8AC80404502D12B
:100810004FF001080FE0DFF8A480404502D14FF00F
:10082000020808E0DFF89880404502D14FF0030845
:1008300001E04FF0040808FA06F848EA0508CCF889
:1008400008804D68D9F80060ED024D4601D5164389
:1008500000E096432E604D68DAF80060AD02554620
:1008600001D5164300E096432E604D68DBF800602A
:10087000AD035D4601D5164300E096432E604D68FA
:10088000DEF80060ED03754601D5164300E096439F
:100890002E60641C0D682A46E5407FF431AFBDE848
:1008A000F88F000008040140000011100010024001
:1008B0000000014000080140000C01400010014010
:1008C00000140140C26821EA02030A4043EA0241DF
:1008D000016170470AB1016170470904FBE700003C
:1008E00001488068704700002400002070B50400B3
:1008F00025D094F83D00002520B984F83C502046CE
:1009000000F04EF9242084F83D002068016821F0B1
:10091000010101602068016841F400410160206824
:10092000016821F40041016000F0A2FA4D4A6168BB
:10093000914201D84C4900E04C49884201D2012043
:1009400070BD4B492368B0FBF1F15E6826F03F06AD
:100950000E435E606368934206D94FF49673594321
:100960004FF47A73B1FBF3F12368491C1E6A26F039
:100970003F06314319626168914210D84900401E18
:10098000B0FBF1F2521CC2F30B02042A01D2042084
:1009900022E0B0FBF1F0401CC0F30B001CE0A268A9
:1009A000F2B301EBC10303EB0116431EB3FBF6F3F5
:1009B0005B1C43F480431B0549D092B301EBC10299
:1009C00002EB0111401EB0FBF1F0401CC0F30B0024
:1009D00040F4804040F400402168CA694CF6FF733F
:1009E0009A431043C861D4E90710014320680268A4
:1009F00022F0C00211430160D4E9030101432068E1
:100A0000826848F2FF339A4311438160D4E90501BB
:100A100008432168CA6822F0FF021043C86001E061
:100A20000EE016E02068016841F0010101602564D4
:100A3000202084F83D00256384F83E50002070BDDE
:100A400001EB4106431EB3FBF6F35B1CB3E7012049
:100A5000C2E701EB4101401EB0FBF1F0401CC0F3C6
:100A60000B00B7E7A086010080841E0000093D004E
:100A700040420F002DE9F84F1F4690468A46044633
:100A8000DDF82890FFF72CFF054694F83D0020285C
:100A90007FD11923012240492046009501F0CCF96D
:100AA000002876D194F83C00012872D0012084F807
:100AB0003C0020680168C90703D1016841F00101C9
:100AC00001602068016821F400610160212084F840
:100AD0003D00102084F83E0000262664C4F82480DF
:100AE0006785608D20852D48E0622B464A46514639
:100AF000204601F027F990B920684169806900908B
:100B000036E02A464946204601F03CFA50B1206CB6
:100B1000042804D12068016841F4007101600120BB
:100B2000BDE8F88F606A216800780861606A401C3F
:100B30006062618D491E6185218D491E89B22185C2
:100B400022685369DB435B070BD451B10078106115
:100B5000606A401C6062608D401E6085208D401E72
:100B600020852A464946204601F03AF90028CED190
:100B7000208D0028C5D154F83D0B016841F4007167
:100B80000160202004F81E09E67766770020C7E799
:100B9000FFE70220C4E70000020010000000FFFF92
:100BA00010B586B000210091019102910391006877
:100BB0000F4988421AD10F4CA06940F00800A0618B
:100BC000A069694600F008000490C020009012203F
:100BD0000190032003900848FFF784FDE06940F48A
:100BE0000010E061E06900F40010049006B010BD50
:100BF0000054004000100240000C01400A48016807
:100C00000A4A1278114401600948017809B1491E65
:100C10000170818809B1491E8180C178002901D005
:100C2000491EC170704700002C00002024000020E5
:100C300016000020074810B5016841F0100101605E
:100C4000032000F06DF80F2000F006F800F024F803
:100C5000002010BD0020024070B50D4D04464FF439
:100C60007A712878B1FBF0F00A490968B1FBF0F01D
:100C700000F05DFC48B9102C07D200222146501E1E
:100C800000F02EF800206C6070BD012070BD0000E7
:100C90002400002030000020094808B5816941F097
:100CA00001018161816901F001010091C16941F097
:100CB0008051C161C06900F08050009008BD000003
:100CC00000100240002809DB00F01F0201219140C2
:100CD0004009800000F1E020C0F8001170470000DA
:100CE000F0B40E4B1B680C46C3F30223C3F1070597
:100CF000042D00D90425191D072901D2002300E085
:100D0000DB1E012606FA05F1491E214099409E404E
:100D1000761E16403143F0BC01F017BE0CED00E02A
:100D2000064900F0070208684FF6FF03184040EA42
:100D30000220034A10430860704700000CED00E0F9
:100D40000000FA052DE9F0470F46050061D0434E3B
:100D5000306800F00700B84209D2306820F0070080
:100D600038433060306800F00700B84251D128683D
:100D70003B4C810712D5400703D5606840F4E06022
:100D800060602878000703D5606840F460506060B8
:100D90006068A96820F0F000084360602878C00708
:100DA00028D06868012810D02168022810D089074F
:100DB00000292EDA616821F0030101436160FFF729
:100DC0008FFD804641F288390DE021688903EFE705
:100DD0008901EDE7FFF784FDA0EB0801494502D941
:100DE0000320BDE8F0876068696800F00C00B0EB94
:100DF000810FEFD1306800F00700B8420BD930689E
:100E000020F0070038433060306800F00700B84237
:100E100001D00120E5E72878400705D56068E9683A
:100E200020F4E060084360602878000706D5606819
:100E3000296920F4605040EAC100606000F038F891
:100E40006168084AC1F30311515CC8400649086053
:100E500006480068FFF700FF0020C2E700200240BC
:100E600000100240663000083000002028000020FA
:100E70000448054900684968044AC1F30221515CED
:100E8000C840704730000020001002407630000853
:100E90000448054900684968044AC1F3C221515C0D
:100EA000C840704730000020001002407630000833
:100EB0000E4A51680E4801F00C03042B11D0082B88
:100EC0000FD10C48C1F38343C903C05C0AD55168F4
:100ED000084AC1F34041921E515C054A5043B0FBA1
:100EE000F1F0704704494843704700000010024089
:100EF00000127A005630000800093D002DE9F84F35
:100F0000040070D02078C04DC00749D06868C0F395
:100F10008100012807D06868C0F38100022809D148
:100F20006868C00306D52868800339D56068002842
:100F3000E7D035E06068B0F5803F0BD010B1B0F578
:100F4000A02F11D0286820F480302860286820F471
:100F5000802002E0286840F480302860606890B10A
:100F6000FFF7BEFC06460AE0286840F480202860AF
:100F7000F0E700BFFFF7B4FC801B642873D8286833
:100F80008003F7D50CE0FFF7ABFC064605E000BF99
:100F9000FFF7A6FC801B6428F0D828688003F7D4EC
:100FA00020789A4E80074FF001094FF0000839D59C
:100FB000686810F00C0F07D06868C0F38100022841
:100FC00009D16868C00306D42868800714D5206951
:100FD000012808D110E02069B0B1C6F80090FFF7F1
:100FE0007FFC074605E00AE1FFF77AFCC01B0228F8
:100FF000C4D828688007F7D52868616920F0F80010
:1010000040EAC10028600DE0C6F80080FFF768FCE8
:10101000074604E0FFF764FCC01B022823D82868B9
:101020008007F7D4207800072CD57948A169D9B179
:10103000C0F80090FFF754FC074604E0FFF750FCAF
:10104000C01B02280FD8686A8007F7D571484FF493
:10105000FA510068B0FBF1F0009000BF0098411E0B
:101060000091FAD20EE080E0C0F80080FFF738FC73
:10107000074604E0FFF734FCC01B022875D8686AF5
:101080008007F7D42078400760D5E8690027C000C2
:1010900008D4E86940F08050E861E869012700F071
:1010A000805000905C480168C90513D401688346EC
:1010B00041F480710160FFF713FC824606E000BF37
:1010C000FFF70EFCA0EB0A0064284ED8DBF8000006
:1010D000C005F5D5E06801280AD008B1052813D06D
:1010E000286A20F001002862286A20F0040002E04B
:1010F000286A40F001002862E06841F2883B98B11C
:10110000FFF7EEFB82460BE0286A40F004002862FD
:10111000EEE700BFFFF7E4FBA0EB0A0159455AD800
:10112000286A8007F6D50CE0FFF7DAFB824605E077
:10113000FFF7D6FBA0EB0A0159454CD8286A800777
:10114000F6D41FB1E86920F08050E861E06988B307
:101150006968C1F38101022944D00228C6F8608081
:1011600004D0FFF7BDFB044638E034E0FFF7B8FBDE
:10117000074604E0FFF7B4FBC01B02282BD8286801
:101180008001F7D4206AB0F5803F05D16868A16876
:1011900020F4003008436860D4E908010843696816
:1011A00021F4741108436860C6F86090FFF798FB5B
:1011B000044606E025E000BFFFF792FB001B022873
:1011C00009D828688001F7D51BE000BFFFF788FB2E
:1011D000001B022802D90320BDE8F88F286880018F
:1011E000F4D40EE00128F7D06868226A00F4803158
:1011F000914204D1616A00F47010884201D001204C
:10120000EAE70020E8E70000001002400000424248
:1012100080044242300000200070004070B504009D
:1012200009D0606A002540B125616561A56294F826
:10123000510040B10CE0012070BD6068B0F5827FC4
:10124000F4D0E561F2E784F85050204600F040F811
:10125000022084F851002068016821F040010160FB
:10126000A088218900F4827001F404410843A18917
:1012700001F400610843217C01F002010843217D53
:1012800001F001010843218B01F400710843217F23
:1012900001F03801084394F8201001F08001084360
:1012A000218D01F40051084321680860A0690421E0
:1012B00001EA1040216848602068C16921F400619A
:1012C000C1616565012084F85100002070BD0000F7
:1012D00030B585B000240094019402940394006812
:1012E0001449884223D11448816941F480518161B5
:1012F000816901F480510491816941F004018161A7
:1013000080690E4D00F004000490A020009002209F
:1013100001900320039069462846FFF7E3F9402037
:10132000CDE90004694628460294FFF7DBF905B0D1
:1013300030BD0000003001400010024000080140B4
:101340002DE9FF4F81B0044690F8500000260E9F13
:101350001D4693464FF0010901280FD04FF0010AB6
:1013600084F850A0FFF7BCFA804694F851006168F9
:1013700001280DD0B1F5827F08D103E0022005B02D
:10138000BDE8F08FA16809B9042801D00226C9E0A0
:101390000298002865D0BBF1000FFBD0002DF9D0DA
:1013A00094F85100042802D0052084F85100002050
:1013B0006065C4F838B0E587A58702992163E586A2
:1013C000A5862064606420680168490603D401682A
:1013D00041F040010160E068B0F5006F606803D043
:1013E000F0B3012D47D081E008B1012D3CD1206B35
:1013F00021680088C860206B801C2063E08E401E3E
:10140000E08631E02068816889070FD5E18E69B1F7
:10141000B9F1010F0AD1216B0988C160206B801CD2
:101420002063E08E401EE0864FF00009206881684E
:10143000C9070CD0E18F51B1C068A16B0880A06BC7
:10144000801CA063E08F401EE0874FF00109FFF78A
:1014500047FAA0EB0800B84206D3781C04D001E09C
:1014600009E05BE003265BE0E08E0028CAD1E08F54
:101470000028C7D140E0206B216800780873206BFA
:10148000401C2063E08E401EE0862FE020688168CB
:1014900089070FD5E18E69B1B9F1010F0AD1216B2E
:1014A00009780173206B401C2063E08E401EE086AB
:1014B0004FF0000920688168C9070CD0E18F51B155
:1014C000C068A16B0870A06B401CA063E08F401E39
:1014D000E0874FF00109FFF703FAA0EB0800B842DC
:1014E00002D3781C02D0BAE7002FB8D0E08E0028D3
:1014F000CCD1E08F0028C9D142463946204600F0C1
:101500009BFF18B10126202060650BE0A06818B988
:101510002068C16880680090606D08B1012601E014
:1015200084F851A0002084F85000304627E710B519
:10153000401EB0F1807F01D3012010BD4FF0E024A8
:1015400060610F21601701F000FA0020A061072000
:101550002061002010BD000070B590F83C20012AE9
:1015600026D0012480F83C40022280F83D20036808
:101570005A689D6822F070060A6832435A600D4B23
:1015800002689A4208D0B2F1804F05D00A4B9A42C5
:1015900002D00A4B9A4204D1496825F080031943CE
:1015A000916080F83D40002180F83C10084670BDF5
:1015B000022070BD002C01400004004000080040E3
:1015C00010B5040003D094F83D0010B107E00120ED
:1015D00010BD002084F83C00204600F01FF80220D7
:1015E00084F83D00211D206800F0DCFF012084F814
:1015F000460084F83E0084F83F0084F8400084F8F8
:10160000410084F8420084F8430084F8440084F8E0
:10161000450084F83D00002010BD000008B50068BA
:101620000649884208D10648816941F40061816118
:10163000806900F40060009008BD0000002C0140AB
:101640000010024090F83D10012901D001207047A0
:10165000022180F83D1000680B49884208D0B0F1A3
:10166000804F05D00949884202D00949884204D1F7
:10167000816801F00701062903D0016841F00101EA
:101680000160002070470000002C01400004004071
:101690000008004070B5044690F83C000025012881
:1016A00017D0012684F83C60022084F83D002068B1
:1016B000826822F0770222F47F4282600868502814
:1016C00038D00DDC20284FD005DC90B3102811D184
:1016D0004AE0022070BD302846D040280AD13BE0C5
:1016E00060282FD070280DD0B0F5805F03D0B0F502
:1016F000005F12D0012584F83D60002084F83C0092
:10170000284670BDCB68D1E90121206800F080FF38
:101710002068816841F0770109E0CB68D1E90121B7
:10172000206800F075FF2068816841F48041816085
:10173000E1E719E0CA684968206800F07BFF5021A2
:10174000206806E0CA684968206800F084FF6021CC
:10175000206800F067FFCEE7CA684968206800F09B
:1017600069FF40212068F4E7226801461046F0E74F
:1017700070477047F8B5016804460868CA684B6945
:1017800010F00F0F4FF0000559D003F0010602F4DE
:101790009077374365D0C10705D0D10503D5616C7B
:1017A00041F001016164410705D5D90703D0616C9F
:1017B00041F002016164810705D5D90703D0616C4E
:1017C00041F004016164010707D502F020013143B3
:1017D00003D0616C41F008016164616C00293AD06A
:1017E000800604D5900602D5204600F075FF2068DB
:1017F0004069616CC0F38010090700D460B32046D3
:1018000000F043FF20684069400621D5206814306D
:1018100050E8001F21F0400140E80012002AF5D1F5
:10182000E06BA8B16D494163E06BFEF7D9FE00287B
:1018300011D0E06B416B01B0BDE8F0400847830672
:101840000FD593060DD52046BDE8F84000F044BF03
:101850002046FFF78EFFF8BD2046FFF78AFF65643C
:10186000F8BD266B2023012E7CD1C6067AD5D6067C
:1018700078D508684868009048694FF0020640062D
:1018800040D5E16B086840680004000CE8D0A28DE8
:101890008242E5D9E085886920282DD020680C3067
:1018A00050E8001F21F4807140E80012002AF5D1B1
:1018B0002068143050E8001F21F0010140E80012B8
:1018C000002AF5D12068143050E8001F21F04001B3
:1018D00040E80012002AF5D184F8423025632068E0
:1018E0000C3050E8001F21F0100140E80012002ADF
:1018F000F5D1E06BFEF750FE6663A08DE18D401AD6
:1019000081B22AE0A08DE18D401A81B2E08D0028DD
:10191000A6D00029A4D022680C3252E8000F20F48F
:10192000907042E80007002FF5D12068143050E88D
:10193000002F22F0010240E80027002FF5D184F8A3
:101940004230256320680C3050E8002F22F010024E
:1019500040E80023002BF5D166632046FFF708FF1F
:10196000F8BDFFE705062BD5150629D594F84100EB
:101970002128F5D1A068B0F5805F01D12069B0B110
:10198000206A411C2162216800784860E08C401E7A
:101990000004000CE084E3D12068C16821F08001DC
:1019A000C1602068C16841F04001C160D8E7206A89
:1019B0000088C0F308004860206A801C2062E5E7C8
:1019C0004006CDD55006CBD5CA68204622F040024D
:1019D000CA6084F8413000F0DAF8C1E77B260008DD
:1019E00070B5040004D094F84100002510B106E061
:1019F000012070BD84F84050204600F023F82420D8
:101A000084F841002068C16821F40051C16020467B
:101A100000F0CCFE2068016921F49041016120684A
:101A2000416921F02A0141612068C16841F40051F7
:101A3000C1606564202084F8410084F84200656339
:101A4000002070BD30B585B000240094019402944C
:101A500003940068184988422CD11848816941F4E0
:101A600080418161816901F480410491816941F083
:101A7000040181618069124D00F0040004904FF46C
:101A800000700090022001900320039069462846D0
:101A9000FEF728FE2815CDE9000469462846029481
:101AA000FEF720FE002211462520FFF719F9252018
:101AB000FFF708F905B030BD0038014000100240C2
:101AC0000008014090F84230202B01D002207047DE
:101AD00021B11AB10023036300F0C4BE0120704796
:101AE00001220249024800F0BDBE0000180000209B
:101AF000340100202DE9F843044690F841001F46C8
:101B000016460D46202802D00220BDE8F8837DB19C
:101B100076B100206064212084F84100FEF7E0FEE9
:101B2000A6848046E684A068B0F5805F02D003E01A
:101B30000120EAE7206910B12E4600250EE00026BC
:101B40000CE08021204600F0A8FEA0B9AEB116F846
:101B5000010B21684860E08C401EE084E08C434625
:101B60004FF0000200970028EBD14FF040012046D3
:101B700000F093FE30B10320C7E735F8020BC0F345
:101B80000800E6E7202084F841000020BDE7704708
:101B900010B5012000F0D0FCBDE810404FF4FA6011
:101BA000FEF7CCBC70B50D4600F00700402141EABD
:101BB000C00000F0C1FC0024285D00F0BAFC641CE9
:101BC000082CF9DB70BD00000449487840F004009F
:101BD000487040F0080000F0AFBC0000000000209A
:101BE00010B5022000F0A8FCBDE810404FF4FA60E8
:101BF000FEF7A4BC70B5334C08220021E0702271BE
:101C000004252170012801D9227000E025702E489A
:101C1000026822F080720260026842F08072026004
:101C20002A48026822F001020260026842F00102C2
:101C30000260416000BF00BF00BF3220FEF71CFD04
:101C40002079FEF795FC4FF47A70FEF715FD3020F1
:101C500000F067FE41F294163046FEF76FFC30202C
:101C600000F05FFE3046FEF769FC302000F059FEC0
:101C70003046FEF763FC202000F053FE6420FEF7A0
:101C80005DFC207840F0200000F056FC6570FFF706
:101C90009BFFFFF77DFF0220A070062000F04CFCA8
:101CA0003046FEF74BFC07490020491DFFF77AFF3D
:101CB000044901200D31FFF775FFBDE87040FFF7C3
:101CC0008FBF000000000020FCED00E0001000E0ED
:101CD00010B5044602E0641C00F02BFC20780028BC
:101CE000F9D110BD7FB5094D3CCD8DE83C00084AC7
:101CF000D278914201D3521ED1B21DF8211008446E
:101D0000C0B240F0800000F017FC7FBD44300008F6
:101D100000000020FEE701684A69D24352050FD453
:101D20006FF480624A61002140F8301F2022427324
:101D30008173026942F0040202610173012070475D
:101D400000207047F8B50446C06A1E460D46174687
:101D5000082807D0012805D010F5803F02D0206B5D
:101D6000122804D12068016841F480710160134693
:101D700000224FF001112046009600F05DF840B1BE
:101D800020680068C00502D54FF40070206403206D
:101D9000F8BD2069B0F5804F0ED00620216800EA1A
:101DA000D51040F0F000086133463A460B49204612
:101DB00000F08AF878B902E005F0FE0000E0E8B231
:101DC00021680861054933463A46891F204600F0DC
:101DD0007BF80028DCD00120F8BD000008000100DD
:101DE00070B516460D4604461EE02046FFF793FFE9
:101DF00008B1012070BD681C16D0FEF771FD801B74
:101E0000A84200D885B920684069C04340070BD577
:101E1000002044F8300F20216173A073216941F044
:101E2000200121612073E4E720684069C043400736
:101E3000DBD4002070BD00002DE9F047984617461E
:101E40000D460446C1F30746DDF820902AE000BFA6
:101E5000B8F1FF3F26D0FEF743FDA0EB0901414555
:101E600002D8B8F1000F1DD12068012E16D080696C
:101E700025EA00000004000C12D00020B84211D165
:101E8000002044F8300F20216173A073216941F0D4
:101E90002001216120730120BDE8F0874069E7E758
:101EA0000120EBE72068012E0AD0806925EA0000B6
:101EB0000004000C06D00020B842C9D00020EBE797
:101EC0004069F3E70120F7E72DE9F0479846164609
:101ED0000D4604464FF000094FF0200AC1F30747B2
:101EE00023E020684069C043400515D4206801689C
:101EF00041F40071016021686FF480604861C4F8AA
:101F0000309084F83DA084F83E90216C41F00401AB
:101F1000216484F83C9021E0701C06D0FEF7E0FCC0
:101F2000A0EB0800B04203D816B1012F1FD021E06A
:101F30002068012F15D0806925EA00000004000CFC
:101F400018D000BF44F8309F84F80DA084F80E909C
:101F5000216941F02001216184F80C900120BDE845
:101F6000F087406925EA00000004000CEAD12068EF
:101F7000406901E02068806925EA00000004000C47
:101F8000AFD1ECE770B516460D4604461EE020467C
:101F9000FFF7C1FE08B1012070BD681C16D0FEF726
:101FA0009FFC801BA84200D885B920684069C043C7
:101FB00000060BD5002044F8300F20216173A07378
:101FC000216941F0200121612073E4E72068406924
:101FD000C0430006DBD4002070BD10B5142000F013
:101FE00059F8800705D10321BDE81040142000F006
:101FF00073B810BD7CB50446002529460D2000F0BD
:1020000001F9932020702020607001A823460090E1
:10201000022219460C2000F06BF8010009D1225C65
:10202000401C5540C0B20428F9D3205CA84200D01F
:10203000022108467CBD70B50C46054600F02AF822
:1020400020EA04012846BDE8704000F0DBB810B576
:1020500000F03EF88D212A2000F0D4F83E212B20FC
:1020600000F0D0F81E212D2000F0CCF800212C200B
:1020700000F0C8F87021262000F0C4F84021152097
:1020800000F0C0F83D21112000F0BCF8BDE8104080
:10209000FFF7A3BF7E2101EA400040F0800000F07E
:1020A0009BB97CB50C46054607210D2000F0AAF827
:1020B000257001A823460090012219460C2000F04B
:1020C00017F818B9BDF80410102900D002207CBD03
:1020D0000F21012000F096B870B50C460546FFF7B9
:1020E000D9FF40EA04012846BDE8704000F08AB8F4
:1020F0002DE9FF5F00270226DDF838A015468B4644
:102100008146B8460C2805D0B9F10E0F05D112272B
:10211000102001E077273020804647F08001022020
:1021200000F070F880210420FFF785FF80210A204D
:10213000FFF7D2FF0021012000F064F8002406E040
:102140001BF80410092000F05DF8641CA4B2AC4236
:10215000F6D34946012000F055F8B9F10C0F03D130
:1021600080210D20FFF7B8FF4FF4FA650420FFF738
:1021700091FF6D1E2D0404462D0C04D0E00702D102
:1021800014EA080FF2D080210D20FFF754FF35B17B
:102190000620FFF77FFF10F01B0F04D0022604B0CB
:1021A0003046BDE8F09F00263C40E00700D0012605
:1021B000B9F10C0FF3D10A20FFF76CFF04460C2095
:1021C000FFF768FF10F007004FEAC40104D0083998
:1021D0000844AAF8000001E0AAF8001024B1102C6D
:1021E00004D91024002503E00124FBE7002506E0C4
:1021F0000920FFF74FFF039948556D1CADB2A5426A
:10220000F6D3CCE77E2202EA400000F0FDB80000E1
:102210002DE9F04786B000243548009401940294DB
:102220000394816941F010018161816901F010011D
:102230000491816941F020018161816901F02001EF
:102240000491816941F004018161816901F0040117
:102250000491816941F0080181618069DFF894800F
:1022600000F008004FF40055049000222946404633
:10227000FEF730FBDFF88090002210214846FEF781
:1022800029FBDFF878A04FF4734700223946504607
:10229000FEF720FB0095022601250396CDE90154A7
:1022A00069464046FEF71EFA1020CDE90005CDE94B
:1022B000024669464846FEF715FA11480095CDE9F1
:1022C000010469465046FEF70DFA00970396CDE9E2
:1022D000015469465046FEF705FA002211460620D1
:1022E000FEF7FEFC0620FEF7EDFC06B0BDE8F08729
:1022F000001002400010014000080140000C0140A5
:10230000000011100F4810B50D4901604FF48271A3
:10231000416000218160C1604FF400720161C0E939
:1023200005121022C0E90721416281620A21C162BF
:10233000FEF774FF002801D072B6FEE710BD000062
:10234000003001409400002010B586B000241748EA
:102350000094019402940394049413490594016039
:102360004721C0E901144FF6FE71C0E9031444612E
:102370008461FFF725F908B172B6FEE74FF480508B
:10238000009069460948FFF785F908B172B6FEE783
:10239000049404A905480594FFF7DEF8002801D04D
:1023A00072B6FEE706B010BD002C0140EC00002024
:1023B000FEE7FEE7704700000EB501238DF804002C
:1023C0000A20009002AA01A90248FEF7B9FF9DF871
:1023D00008000EBD9400002070B50A4D044600228E
:1023E00010212846FEF776FA2046FFF7E5FF002089
:1023F000FFF7E2FF0446012210212846FEF76AFAA1
:10240000204670BD0008014070B50A4C0E460546D6
:10241000002210212046FEF75DFA2846FFF7CCFF88
:102420003046FFF7C9FF2046BDE870400122102169
:10243000FEF750BA0008014038B50B46009204463A
:102440000022802100F008F8002804D0606D40F0E0
:1024500020006065032038BD2DE9F8431E469146F3
:1024600088460446089DFEF73BFA401B351AFEF7E6
:1024700037FA074625480068C0F3CB30684338E098
:10248000701C37D0FEF72CFAC01BA84203D215B13E
:10249000009860B32CE02068416821F0E0014160C1
:1024A0006068B0F5827F0BD1A068B0F5004F02D014
:1024B000B0F5806F04D12068016821F0400101600F
:1024C000A06AB0F5005F09D12068016821F40051CD
:1024D00001602068016841F400510160012084F826
:1024E0005100002084F850000320BDE8F883002547
:1024F000401E00902068816838EA010004D0002165
:102500004945BDD10020F0E70121F9E73000002066
:10251000704770B500F0F00200070C46050E42EA65
:10252000040000F0FEF945EA0400BDE8704000F048
:10253000F8B90121FFF7EDBF0021FFF7EABFFEF771
:102540005DBB30B58FB028216846FDF7D9FE142158
:102550000AA8FDF7D5FE01210804CDE900100024EA
:10256000029402250491CDE907504FF4E010099040
:102570006846FEF7C3FC08B172B6FEE70F20CDE94E
:102580000A054FF48060CDE90C4002210AA80E94A0
:10259000FEF7D8FB002801D072B6FEE70FB030BDC1
:1025A00070470000F0B50268164B174C174D4FF0FE
:1025B0008047984205D0B84203D0A04201D0A8423B
:1025C00003D122F070064A683243984205D0B842DF
:1025D00003D0A04201D0A84203D122F44074CA68BB
:1025E00022434C6922F08002224302608A68C26260
:1025F0000A688262984201D109690163012141613F
:10260000F0BD0000002C0140000400400008004024
:1026100010B5846842EA032224F47F440A4322432B
:10262000826010BD826822F070020A4342F0070106
:102630008160704710B5036A046A24F001040462E3
:10264000846924F0F00444EA021423F00A020A43E5
:102650008461026210BD10B5036A046A24F010049C
:102660000462846923F0A00324F4704444EA023233
:1026700043EA01118261016210BD10B5406A002178
:10268000C185C184FFF775F810BD01680C3151E8B0
:10269000002F22F4907241E80023002BF5D101684D
:1026A000143151E8002F22F0010241E80023002BF1
:1026B000F5D1016B012909D101680C3151E8002FD6
:1026C00022F0100241E80023002BF5D1202180F8F0
:1026D000421000210163704708B590F8421022298A
:1026E00001D0022008BD82684FF480539A4201D184
:1026F000016921B1816A9A421BD04AB10AE002689D
:10270000816A5268C2F308020A80816A891C08E063
:10271000026972B10268526802F07F020A70816A2F
:10272000491C8162C18D491E0904090CC18503D071
:102730001BE002685268F1E70168CA6822F02002D3
:10274000CA600168CA6822F48072CA6001684A6976
:1027500022F001024A61202180F8421000214163E9
:10276000026B012A03D0FFF7BBF9002008BD01630B
:1027700001680C3151E8002F22F0100241E80023DB
:10278000002BF5D101680A68D20602D50A684968AB
:102790000091818DFEF7ECFFE7E700000A23014678
:1027A00009220148FFF7A6B93401002070B504469C
:1027B00000680169E26821F4405111430161216917
:1027C000A0680843616908432168CA6841F20C6344
:1027D0009A430243CA6020684169A26921F44071AA
:1027E000114341611E492068884202D1FEF750FB27
:1027F00001E0FEF73DFB00EBC00101EB0012606859
:1028000064218000B2FBF0F3B3FBF1F36FF0180624
:102810007343B2FBF0F5B2FBF0F605EB8305322310
:1028200003EB0515B5FBF1F5B6FBF1F605F0F00588
:1028300005EB0615B2FBF0F6B2FBF0F0B0FBF1F0E1
:102840006FF01802504306EB800003EB0010B0FB62
:10285000F1F0216800F00F002844886070BD00008E
:102860000038014081628285C285002141642221B5
:1028700080F84210016921B10168CA6842F480728F
:10288000CA6001684A6942F001024A610068C16891
:1028900041F02001C160002070472DE9F0419846C9
:1028A00017460E460446069D27E0681C25D02DB12C
:1028B000FEF716F8A0EB0800A8421ED920680C30DD
:1028C00050E8001F21F4D07140E80012002AF5D131
:1028D0002068143050E8001F21F0010140E8001288
:1028E000002AF5D1202084F8410084F8420000201D
:1028F00084F840000320BDE8F0812068006836EAD3
:10290000000004D00020B842CFD00020F3E701201F
:10291000F9E700000148FEF72DBF00003401002058
:10292000FEE710B50446FDF723FE44F00400FDF772
:102930001FFE1420FDF702FE24F00400FDF718FE30
:10294000BDE810401420FDF7F9BD0907090E002865
:1029500004DB00F1E02080F80014704700F00F0065
:1029600000F1E02080F8141D7047000004490022A7
:102970000B685A6209684A6A8242FCD370470000B9
:10298000EC00002010B5FFF703F900210846FFF71F
:10299000A9F9BDE8104001A0FFF79AB955495420A4
:1029A0005041524B494E470086B0FEF743F9FFF7BE
:1029B000C8FDFFF72DFC844882490024016083494B
:1029C000C0E901144FF48041C0E9034144618461CE
:1029D000C4610462FDF78AFF08B172B6FEE7FFF733
:1029E00091FCFFF7B1FC78487949F43001604FF46D
:1029F000E131C0E901140C21C460C0E904418461E3
:102A0000C461FEF7EDFF08B172B6FEE76E48AC3068
:102A1000FEF718FEFFF71BFB0220FFF7EBF86D4FE8
:102A20000A220121384600F0B9F90A22002138466D
:102A300000F0B4F9DFF8A0814FF4807B0022594602
:102A400046464046FDF746FF644D4FF40071304660
:102A50006A78FDF73FFFFFF795FF5B480122A91C4D
:102A6000F430FFF72FF84FF0C80940F6B83AAE1C23
:102A70005A492620891DFFF714FBA0BBE87808B14E
:102A8000A88870BB5548801DFFF7B4FA58BB59465B
:102A90004046FDF717FF5148801D81780379C278C1
:102AA0008DE80E00437802784DA103A8FDF790FB56
:102AB000687808B1312000E0302043498DF81400D7
:102AC0000C3903A8FDF744FC08B9A88848B903A845
:102AD000FFF764FE3C4803A90C38FDF7EDFBA5F8B1
:102AE00004A085F8039030780028C1D0FFF750F893
:102AF00000210846FFF7F6F830783038072839D239
:102B0000DFE800F0040D162E444D560037A0FFF705
:102B1000DFF801210020FFF7E5F838A028E03CA00D
:102B2000FFF7D6F801210020FFF7DCF83CA007E012
:102B300037A0FFF7CDF801210020FFF7D3F83DA023
:102B4000FFF7C6F80A220121384600F027F950465F
:102B5000FDF792FD0A220021384600F01FF909E036
:102B600038A0FFF7B5F801210020FFF7BBF839A026
:102B7000FFF7AEF83078312804D0322802D0504622
:102B8000FDF77AFDFFF7FEFE347071E735A0FFF721
:102B90009FF801210020FFF7A5F837A0E8E73BA048
:102BA000FFF796F801210020FFF79CF83BA0DFE734
:102BB0003DA0FFF78DF801210020FFF793F83EA01C
:102BC000D6E700000054004040000020A08601002D
:102BD000003801400000B442000C01401600002003
:102BE000257825782578257825780000494E5641A6
:102BF0004C4944204341524421212100504C532050
:102C0000434845434B20414741494E2100000000C5
:102C100056414C49442043415244212121000000A7
:102C2000504C4541534520434F4D4520494E2121AD
:102C30000000000053454520594F55204147414968
:102C40004E212100524547495354455245442121C4
:102C5000210000005448414E4B20594F552121215D
:102C6000000000005245474953544552204641490F
:102C70004C45442100000000504C53204348414E35
:102C800047452043415244210000000043414E4E3D
:102C90004F5420434F4E4E4543540000544F205351
:102CA00045525645522100004143434F554E542052
:102CB00042414C414E434500495320494E535546ED
:102CC00046494349454E5421000000002DE9F0419A
:102CD0004FF480512C4C4D008E00CF00082851D26B
:102CE000DFE800F0040A171D232E393B012220469D
:102CF000FDF7F0FD002201E001220BE0294620460D
:102D0000FDF7E8FD002231462046FDF7E3FD0022F5
:102D100032E000222046FDF7DDFD0122EEE7002231
:102D20002046FDF7D7FD012204E000222046FDF7F2
:102D3000D1FD002229462046FDF7CCFD0122E2E725
:102D400000222046FDF7C6FD002229462046FDF759
:102D5000C1FD01220BE0002200E001222046FDF728
:102D6000B9FD002229462046FDF7B4FD0022314678
:102D70002046FDF7AFFD012239462046BDE8F0416F
:102D8000FDF7A8BDBDE8F081000C014043F6381105
:102D900091FBF0F080B2FFF7E9BD00002DE9F041B2
:102DA0000F469046124900F025F800F0E5F8064677
:102DB000002518E017B1012F0AD013E007242046A0
:102DC000FFF784FF4046FFF7E1FF641EF7D509E0F7
:102DD00000242046FFF77AFF4046FFF7D7FF641C28
:102DE000082CF6DB6D1CB542E4DBBDE8F081000089
:102DF0000000343F4FF47F0C1CEAD0121EBF1CEAC7
:102E0000D11392EA0C0F93EA0C0F00F0858090EA40
:102E1000010F48BF42F4807240F4000C41F40000FE
:102E20002CF07F4120F07F4000B58142A2EB0302ED
:102E30000FF2081CACEB504EC0F100009EF800E011
:102E40004FEA4E0E00FB0EFC38BF49004FEA2C1C27
:102E500002F5FA020CFB0EF34FEACE1E4FEA112CDC
:102E60004FEAC1210EEB635E42EB22420EFB0CFCEB
:102E70004FEA1C5300FB03114FEA112C4FEA0131BA
:102E80000EFB0CFC4FEADC4C00FB0C11C14228BFCE
:102E900009184CEB03335DF804EB10EB410143EBF5
:102EA000C250B2F57C0F38BF704729D512F0F00F31
:102EB0001CBF00F1C04000F00040704700818283D9
:102EC0008485868788898B8C8D8E8F919293959639
:102ED00097999A9C9D9FA0A2A3A5A7A8AAACAEB0C3
:102EE000B2B3B5B7B9BCBEC0C2C5C7C9CCCED1D4C8
:102EF000D7D9DCDFE2E6E9ECF0F3F7FAFE000000F8
:102F00004FEA400C0CF1807CBCF17E4F28BF70472B
:102F1000B0F1C04000F091B890EA010F0CEAD11373
:102F200048BF42F48072624538BF634507D213F44C
:102F30007F0F16D080EA010000F00040704710B506
:102F400000F035F8097EFC3E00F005B880EA01008B
:102F500000F00040704780EA010000F0004000F0FF
:102F60006CB812F47F0F04BF0248704780EA01007A
:102F700000F063B80000C07F41000B0ED3F19E0249
:102F800008D950F400034FEA032323FA02F048BFA4
:102F90004042704710B500F00AF800BF4992248003
:102FA000002070476FF0004282EA200070470EF167
:102FB000020E2EF0030E5EF8044B244204D44FEAB6
:102FC0004102B2F17F4F11D84FEA4003B3F17F4F76
:102FD0000CD80ED14FEAD07CB2F17F4F0CEB4C0CE9
:102FE0000CF1020C08BF4CEBD17C04E04FF0080C54
:102FF00001E04FEAD17C0CEB4C0324FA03F404F01B
:103000000704B4F1040C06D20EEB840CBDE81040AA
:103010004CF0010C6047DFE80CF0070802024FF0AB
:103020000040A0F5800010BD0846420018BFD2F154
:10303000807288BF00F0004010BDFF2141EAD050EF
:10304000C0057047000000004000000014000000B0
:1030500054000000010202030405060708090A0BD8
:103060000C0D0E0F10100000000000000000010207
:1030700003040607080900000000010203043031C0
:10308000323334353637383941424344454640308F
:103090005800303132333435363738396162636441
:1030A0006566403078000000C8300008000000204D
:1030B0003400000028010008FC3000083400002023
:1030C000AC07000044010008000000000000191BCC
:1030D000060C1B1300181806090809060000FF005B
:1030E00000000000000000000000000001000000DF
:0C30F00010000000000000000024F400AC
:04000005080000ED02
:00000001FF
